{
  "_format": "hh-sol-artifact-1",
  "contractName": "CurrencyConverter",
  "sourceName": "contracts/CurrencyConverter.sol",
  "abi": [
    {
      "inputs": [],
      "stateMutability": "nonpayable",
      "type": "constructor"
    },
    {
      "inputs": [
        {
          "internalType": "string",
          "name": "_currency",
          "type": "string"
        },
        {
          "internalType": "address",
          "name": "_newAddress",
          "type": "address"
        }
      ],
      "name": "addDataFeed",
      "outputs": [],
      "stateMutability": "nonpayable",
      "type": "function"
    },
    {
      "inputs": [
        {
          "internalType": "string",
          "name": "_currency",
          "type": "string"
        },
        {
          "internalType": "uint256",
          "name": "_value",
          "type": "uint256"
        }
      ],
      "name": "convertCurrency",
      "outputs": [
        {
          "internalType": "uint256",
          "name": "",
          "type": "uint256"
        },
        {
          "internalType": "uint256",
          "name": "",
          "type": "uint256"
        },
        {
          "internalType": "uint256",
          "name": "",
          "type": "uint256"
        }
      ],
      "stateMutability": "view",
      "type": "function"
    },
    {
      "inputs": [
        {
          "internalType": "string",
          "name": "",
          "type": "string"
        }
      ],
      "name": "dataFeeds",
      "outputs": [
        {
          "internalType": "contract AggregatorV3Interface",
          "name": "",
          "type": "address"
        }
      ],
      "stateMutability": "view",
      "type": "function"
    },
    {
      "inputs": [
        {
          "internalType": "string",
          "name": "",
          "type": "string"
        }
      ],
      "name": "dataFeedsExists",
      "outputs": [
        {
          "internalType": "bool",
          "name": "",
          "type": "bool"
        }
      ],
      "stateMutability": "view",
      "type": "function"
    },
    {
      "inputs": [
        {
          "internalType": "string",
          "name": "_currency",
          "type": "string"
        }
      ],
      "name": "disableDataFeed",
      "outputs": [],
      "stateMutability": "nonpayable",
      "type": "function"
    },
    {
      "inputs": [
        {
          "internalType": "string",
          "name": "_currency",
          "type": "string"
        }
      ],
      "name": "getLatestData",
      "outputs": [
        {
          "internalType": "int256",
          "name": "",
          "type": "int256"
        },
        {
          "internalType": "uint256",
          "name": "",
          "type": "uint256"
        }
      ],
      "stateMutability": "view",
      "type": "function"
    },
    {
      "inputs": [
        {
          "internalType": "string",
          "name": "_currency",
          "type": "string"
        }
      ],
      "name": "getStatus",
      "outputs": [
        {
          "internalType": "bool",
          "name": "",
          "type": "bool"
        }
      ],
      "stateMutability": "view",
      "type": "function"
    },
    {
      "inputs": [
        {
          "internalType": "string",
          "name": "_currency",
          "type": "string"
        },
        {
          "internalType": "address",
          "name": "_newAddress",
          "type": "address"
        }
      ],
      "name": "updateDataFeed",
      "outputs": [],
      "stateMutability": "nonpayable",
      "type": "function"
    }
  ],
  "bytecode": "0x608060405234801562000010575f80fd5b5073694aa1769357215de4fac081bf1f309adc3253065f60405162000035906200033f565b90815260200160405180910390205f6101000a81548173ffffffffffffffffffffffffffffffffffffffff021916908373ffffffffffffffffffffffffffffffffffffffff16021790555060018060405162000091906200033f565b90815260200160405180910390205f6101000a81548160ff021916908315150217905550731b44f3514812d835eb1bdb0acb33d3fa3351ee435f604051620000d990620003a3565b90815260200160405180910390205f6101000a81548173ffffffffffffffffffffffffffffffffffffffff021916908373ffffffffffffffffffffffffffffffffffffffff1602179055506001806040516200013590620003a3565b90815260200160405180910390205f6101000a81548160ff021916908315150217905550735fb1616f78da7afc9ff79e0371741a747d2a7f225f6040516200017d9062000407565b90815260200160405180910390205f6101000a81548173ffffffffffffffffffffffffffffffffffffffff021916908373ffffffffffffffffffffffffffffffffffffffff160217905550600180604051620001d99062000407565b90815260200160405180910390205f6101000a81548160ff021916908315150217905550731a81afb8146aeffcfc5e50e8479e826e7d55b9105f60405162000221906200046b565b90815260200160405180910390205f6101000a81548173ffffffffffffffffffffffffffffffffffffffff021916908373ffffffffffffffffffffffffffffffffffffffff1602179055506001806040516200027d906200046b565b90815260200160405180910390205f6101000a81548160ff0219169083151502179055503360025f6101000a81548173ffffffffffffffffffffffffffffffffffffffff021916908373ffffffffffffffffffffffffffffffffffffffff16021790555062000481565b5f81905092915050565b7f4554482f555344000000000000000000000000000000000000000000000000005f82015250565b5f62000327600783620002e7565b91506200033482620002f1565b600782019050919050565b5f6200034b8262000319565b9150819050919050565b7f4254432f555344000000000000000000000000000000000000000000000000005f82015250565b5f6200038b600783620002e7565b9150620003988262000355565b600782019050919050565b5f620003af826200037d565b9150819050919050565b7f4254432f455448000000000000000000000000000000000000000000000000005f82015250565b5f620003ef600783620002e7565b9150620003fc82620003b9565b600782019050919050565b5f6200041382620003e1565b9150819050919050565b7f4555522f555344000000000000000000000000000000000000000000000000005f82015250565b5f62000453600783620002e7565b915062000460826200041d565b600782019050919050565b5f620004778262000445565b9150819050919050565b61117c806200048f5f395ff3fe608060405234801561000f575f80fd5b5060043610610086575f3560e01c8063456fb29911610059578063456fb299146101225780636819538a1461013e578063d08a98b51461016e578063d9927278146101a057610086565b806314e9a7e71461008a57806322b05ed2146100a65780632735ff6d146100d65780632a095f69146100f2575b5f80fd5b6100a4600480360381019061009f9190610af9565b6101d1565b005b6100c060048036038101906100bb9190610b53565b61035f565b6040516100cd9190610bb4565b60405180910390f35b6100f060048036038101906100eb9190610af9565b610392565b005b61010c60048036038101906101079190610b53565b6104ea565b6040516101199190610bb4565b60405180910390f35b61013c60048036038101906101379190610b53565b61051f565b005b61015860048036038101906101539190610b53565b610650565b6040516101659190610c28565b60405180910390f35b61018860048036038101906101839190610c74565b610697565b60405161019793929190610cdd565b60405180910390f35b6101ba60048036038101906101b59190610b53565b610827565b6040516101c8929190610d2a565b60405180910390f35b60025f9054906101000a900473ffffffffffffffffffffffffffffffffffffffff1673ffffffffffffffffffffffffffffffffffffffff163373ffffffffffffffffffffffffffffffffffffffff1614610260576040517f08c379a000000000000000000000000000000000000000000000000000000000815260040161025790610dab565b60405180910390fd5b6001826040516102709190610e35565b90815260200160405180910390205f9054906101000a900460ff16156102cb576040517f08c379a00000000000000000000000000000000000000000000000000000000081526004016102c290610e95565b60405180910390fd5b805f836040516102db9190610e35565b90815260200160405180910390205f6101000a81548173ffffffffffffffffffffffffffffffffffffffff021916908373ffffffffffffffffffffffffffffffffffffffff160217905550600180836040516103379190610e35565b90815260200160405180910390205f6101000a81548160ff0219169083151502179055505050565b5f6001826040516103709190610e35565b90815260200160405180910390205f9054906101000a900460ff169050919050565b60025f9054906101000a900473ffffffffffffffffffffffffffffffffffffffff1673ffffffffffffffffffffffffffffffffffffffff163373ffffffffffffffffffffffffffffffffffffffff1614610421576040517f08c379a000000000000000000000000000000000000000000000000000000000815260040161041890610dab565b60405180910390fd5b6001826040516104319190610e35565b90815260200160405180910390205f9054906101000a900460ff1661048b576040517f08c379a000000000000000000000000000000000000000000000000000000000815260040161048290610efd565b60405180910390fd5b805f8360405161049b9190610e35565b90815260200160405180910390205f6101000a81548173ffffffffffffffffffffffffffffffffffffffff021916908373ffffffffffffffffffffffffffffffffffffffff1602179055505050565b6001818051602081018201805184825260208301602085012081835280955050505050505f915054906101000a900460ff1681565b60025f9054906101000a900473ffffffffffffffffffffffffffffffffffffffff1673ffffffffffffffffffffffffffffffffffffffff163373ffffffffffffffffffffffffffffffffffffffff16146105ae576040517f08c379a00000000000000000000000000000000000000000000000000000000081526004016105a590610dab565b60405180910390fd5b6001816040516105be9190610e35565b90815260200160405180910390205f9054906101000a900460ff16610618576040517f08c379a000000000000000000000000000000000000000000000000000000000815260040161060f90610efd565b60405180910390fd5b5f6001826040516106299190610e35565b90815260200160405180910390205f6101000a81548160ff02191690831515021790555050565b5f818051602081018201805184825260208301602085012081835280955050505050505f915054906101000a900473ffffffffffffffffffffffffffffffffffffffff1681565b5f805f6001856040516106aa9190610e35565b90815260200160405180910390205f9054906101000a900460ff16610704576040517f08c379a00000000000000000000000000000000000000000000000000000000081526004016106fb90610efd565b60405180910390fd5b5f8061070f87610827565b915091505f8213610755576040517f08c379a000000000000000000000000000000000000000000000000000000000815260040161074c90610f65565b60405180910390fd5b5f8290505f80896040516107699190610e35565b90815260200160405180910390205f9054906101000a900473ffffffffffffffffffffffffffffffffffffffff1673ffffffffffffffffffffffffffffffffffffffff1663313ce5676040518163ffffffff1660e01b8152600401602060405180830381865afa1580156107df573d5f803e3d5ffd5b505050506040513d601f19601f820116820180604052508101906108039190610fb9565b905081886108119190611011565b8160ff1684965096509650505050509250925092565b5f806001836040516108399190610e35565b90815260200160405180910390205f9054906101000a900460ff16610893576040517f08c379a000000000000000000000000000000000000000000000000000000000815260040161088a90610efd565b60405180910390fd5b5f805f856040516108a49190610e35565b90815260200160405180910390205f9054906101000a900473ffffffffffffffffffffffffffffffffffffffff1673ffffffffffffffffffffffffffffffffffffffff1663feaf968c6040518163ffffffff1660e01b815260040160a060405180830381865afa15801561091a573d5f803e3d5ffd5b505050506040513d601f19601f8201168201806040525081019061093e91906110cf565b509350509250508181935093505050915091565b5f604051905090565b5f80fd5b5f80fd5b5f80fd5b5f80fd5b5f601f19601f8301169050919050565b7f4e487b71000000000000000000000000000000000000000000000000000000005f52604160045260245ffd5b6109b18261096b565b810181811067ffffffffffffffff821117156109d0576109cf61097b565b5b80604052505050565b5f6109e2610952565b90506109ee82826109a8565b919050565b5f67ffffffffffffffff821115610a0d57610a0c61097b565b5b610a168261096b565b9050602081019050919050565b828183375f83830152505050565b5f610a43610a3e846109f3565b6109d9565b905082815260208101848484011115610a5f57610a5e610967565b5b610a6a848285610a23565b509392505050565b5f82601f830112610a8657610a85610963565b5b8135610a96848260208601610a31565b91505092915050565b5f73ffffffffffffffffffffffffffffffffffffffff82169050919050565b5f610ac882610a9f565b9050919050565b610ad881610abe565b8114610ae2575f80fd5b50565b5f81359050610af381610acf565b92915050565b5f8060408385031215610b0f57610b0e61095b565b5b5f83013567ffffffffffffffff811115610b2c57610b2b61095f565b5b610b3885828601610a72565b9250506020610b4985828601610ae5565b9150509250929050565b5f60208284031215610b6857610b6761095b565b5b5f82013567ffffffffffffffff811115610b8557610b8461095f565b5b610b9184828501610a72565b91505092915050565b5f8115159050919050565b610bae81610b9a565b82525050565b5f602082019050610bc75f830184610ba5565b92915050565b5f819050919050565b5f610bf0610beb610be684610a9f565b610bcd565b610a9f565b9050919050565b5f610c0182610bd6565b9050919050565b5f610c1282610bf7565b9050919050565b610c2281610c08565b82525050565b5f602082019050610c3b5f830184610c19565b92915050565b5f819050919050565b610c5381610c41565b8114610c5d575f80fd5b50565b5f81359050610c6e81610c4a565b92915050565b5f8060408385031215610c8a57610c8961095b565b5b5f83013567ffffffffffffffff811115610ca757610ca661095f565b5b610cb385828601610a72565b9250506020610cc485828601610c60565b9150509250929050565b610cd781610c41565b82525050565b5f606082019050610cf05f830186610cce565b610cfd6020830185610cce565b610d0a6040830184610cce565b949350505050565b5f819050919050565b610d2481610d12565b82525050565b5f604082019050610d3d5f830185610d1b565b610d4a6020830184610cce565b9392505050565b5f82825260208201905092915050565b7f4163636573732064656e696564000000000000000000000000000000000000005f82015250565b5f610d95600d83610d51565b9150610da082610d61565b602082019050919050565b5f6020820190508181035f830152610dc281610d89565b9050919050565b5f81519050919050565b5f81905092915050565b5f5b83811015610dfa578082015181840152602081019050610ddf565b5f8484015250505050565b5f610e0f82610dc9565b610e198185610dd3565b9350610e29818560208601610ddd565b80840191505092915050565b5f610e408284610e05565b915081905092915050565b7f4461746166656564206a757374206578697374730000000000000000000000005f82015250565b5f610e7f601483610d51565b9150610e8a82610e4b565b602082019050919050565b5f6020820190508181035f830152610eac81610e73565b9050919050565b7f4461746166656564206e6f7420657869737473000000000000000000000000005f82015250565b5f610ee7601383610d51565b9150610ef282610eb3565b602082019050919050565b5f6020820190508181035f830152610f1481610edb565b9050919050565b7f50726963652066656564206572726f72000000000000000000000000000000005f82015250565b5f610f4f601083610d51565b9150610f5a82610f1b565b602082019050919050565b5f6020820190508181035f830152610f7c81610f43565b9050919050565b5f60ff82169050919050565b610f9881610f83565b8114610fa2575f80fd5b50565b5f81519050610fb381610f8f565b92915050565b5f60208284031215610fce57610fcd61095b565b5b5f610fdb84828501610fa5565b91505092915050565b7f4e487b71000000000000000000000000000000000000000000000000000000005f52601160045260245ffd5b5f61101b82610c41565b915061102683610c41565b925082820261103481610c41565b9150828204841483151761104b5761104a610fe4565b5b5092915050565b5f69ffffffffffffffffffff82169050919050565b61107081611052565b811461107a575f80fd5b50565b5f8151905061108b81611067565b92915050565b61109a81610d12565b81146110a4575f80fd5b50565b5f815190506110b581611091565b92915050565b5f815190506110c981610c4a565b92915050565b5f805f805f60a086880312156110e8576110e761095b565b5b5f6110f58882890161107d565b9550506020611106888289016110a7565b9450506040611117888289016110bb565b9350506060611128888289016110bb565b92505060806111398882890161107d565b915050929550929590935056fea26469706673582212205e4ce0891e6f5b73f71bd3cc0286ec07ec668c3abb516cd1062558723c30c97564736f6c63430008140033",
  "linkReferences": {},
  "deployedLinkReferences": {}
}